{
  "_format": "hh-sol-artifact-1",
  "contractName": "Institutes",
  "sourceName": "contracts/Institutes.sol",
  "abi": [
    {
      "inputs": [
        {
          "internalType": "address",
          "name": "_walletAddress",
          "type": "address"
        },
        {
          "internalType": "string",
          "name": "_name",
          "type": "string"
        },
        {
          "internalType": "string",
          "name": "_description",
          "type": "string"
        },
        {
          "internalType": "string",
          "name": "_password",
          "type": "string"
        }
      ],
      "name": "addInstitute",
      "outputs": [],
      "stateMutability": "nonpayable",
      "type": "function"
    },
    {
      "inputs": [],
      "name": "getAllInstitutes",
      "outputs": [
        {
          "components": [
            {
              "internalType": "uint256",
              "name": "id",
              "type": "uint256"
            },
            {
              "internalType": "address",
              "name": "walletAddress",
              "type": "address"
            },
            {
              "internalType": "string",
              "name": "name",
              "type": "string"
            },
            {
              "internalType": "string",
              "name": "description",
              "type": "string"
            },
            {
              "internalType": "bytes32",
              "name": "password",
              "type": "bytes32"
            }
          ],
          "internalType": "struct Institutes.Institute[]",
          "name": "",
          "type": "tuple[]"
        }
      ],
      "stateMutability": "view",
      "type": "function"
    },
    {
      "inputs": [
        {
          "internalType": "address",
          "name": "_walletAddress",
          "type": "address"
        }
      ],
      "name": "getInstitute",
      "outputs": [
        {
          "components": [
            {
              "internalType": "uint256",
              "name": "id",
              "type": "uint256"
            },
            {
              "internalType": "address",
              "name": "walletAddress",
              "type": "address"
            },
            {
              "internalType": "string",
              "name": "name",
              "type": "string"
            },
            {
              "internalType": "string",
              "name": "description",
              "type": "string"
            },
            {
              "internalType": "bytes32",
              "name": "password",
              "type": "bytes32"
            }
          ],
          "internalType": "struct Institutes.Institute",
          "name": "",
          "type": "tuple"
        }
      ],
      "stateMutability": "view",
      "type": "function"
    },
    {
      "inputs": [
        {
          "internalType": "uint256",
          "name": "",
          "type": "uint256"
        }
      ],
      "name": "institutes",
      "outputs": [
        {
          "internalType": "uint256",
          "name": "id",
          "type": "uint256"
        },
        {
          "internalType": "address",
          "name": "walletAddress",
          "type": "address"
        },
        {
          "internalType": "string",
          "name": "name",
          "type": "string"
        },
        {
          "internalType": "string",
          "name": "description",
          "type": "string"
        },
        {
          "internalType": "bytes32",
          "name": "password",
          "type": "bytes32"
        }
      ],
      "stateMutability": "view",
      "type": "function"
    },
    {
      "inputs": [],
      "name": "institutesCount",
      "outputs": [
        {
          "internalType": "uint256",
          "name": "",
          "type": "uint256"
        }
      ],
      "stateMutability": "view",
      "type": "function"
    },
    {
      "inputs": [
        {
          "internalType": "address",
          "name": "",
          "type": "address"
        }
      ],
      "name": "institutesMap",
      "outputs": [
        {
          "internalType": "uint256",
          "name": "id",
          "type": "uint256"
        },
        {
          "internalType": "address",
          "name": "walletAddress",
          "type": "address"
        },
        {
          "internalType": "string",
          "name": "name",
          "type": "string"
        },
        {
          "internalType": "string",
          "name": "description",
          "type": "string"
        },
        {
          "internalType": "bytes32",
          "name": "password",
          "type": "bytes32"
        }
      ],
      "stateMutability": "view",
      "type": "function"
    },
    {
      "inputs": [
        {
          "internalType": "address",
          "name": "_walletAddress",
          "type": "address"
        },
        {
          "internalType": "string",
          "name": "_password",
          "type": "string"
        }
      ],
      "name": "login",
      "outputs": [
        {
          "internalType": "bool",
          "name": "",
          "type": "bool"
        }
      ],
      "stateMutability": "view",
      "type": "function"
    }
  ],
  "bytecode": "0x608060405234801561001057600080fd5b506119ac806100206000396000f3fe608060405234801561001057600080fd5b506004361061007d5760003560e01c80636383838d1161005b5780636383838d14610102578063645d72611461012057806390ee20b014610150578063d9dd3c5a146101845761007d565b8063073eefa314610082578063248273181461009e5780632f19d50b146100d2575b600080fd5b61009c60048036038101906100979190610e7c565b6101a2565b005b6100b860048036038101906100b39190610f37565b61042d565b6040516100c9959493929190611024565b60405180910390f35b6100ec60048036038101906100e79190611085565b610593565b6040516100f991906110fc565b60405180910390f35b61010a6106df565b60405161011791906112cd565b60405180910390f35b61013a60048036038101906101359190610f37565b6108cc565b604051610147919061136c565b60405180910390f35b61016a600480360381019061016591906113ba565b610b00565b60405161017b959493929190611024565b60405180910390f35b61018c610c76565b60405161019991906113e7565b60405180910390f35b6000600260008673ffffffffffffffffffffffffffffffffffffffff1673ffffffffffffffffffffffffffffffffffffffff1681526020019081526020016000206000015414610227576040517f08c379a000000000000000000000000000000000000000000000000000000000815260040161021e90611474565b60405180910390fd5b600080815480929190610239906114c3565b919050555060006040518060a0016040528060005481526020018673ffffffffffffffffffffffffffffffffffffffff1681526020018581526020018481526020018360405160200161028c9190611547565b60405160208183030381529060405280519060200120815250905060018190806001815401808255809150506001900390600052602060002090600502016000909190919091506000820151816000015560208201518160010160006101000a81548173ffffffffffffffffffffffffffffffffffffffff021916908373ffffffffffffffffffffffffffffffffffffffff1602179055506040820151816002019081610339919061176a565b50606082015181600301908161034f919061176a565b5060808201518160040155505080600260008773ffffffffffffffffffffffffffffffffffffffff1673ffffffffffffffffffffffffffffffffffffffff1681526020019081526020016000206000820151816000015560208201518160010160006101000a81548173ffffffffffffffffffffffffffffffffffffffff021916908373ffffffffffffffffffffffffffffffffffffffff1602179055506040820151816002019081610402919061176a565b506060820151816003019081610418919061176a565b50608082015181600401559050505050505050565b60026020528060005260406000206000915090508060000154908060010160009054906101000a900473ffffffffffffffffffffffffffffffffffffffff169080600201805461047c9061158d565b80601f01602080910402602001604051908101604052809291908181526020018280546104a89061158d565b80156104f55780601f106104ca576101008083540402835291602001916104f5565b820191906000526020600020905b8154815290600101906020018083116104d857829003601f168201915b50505050509080600301805461050a9061158d565b80601f01602080910402602001604051908101604052809291908181526020018280546105369061158d565b80156105835780601f1061055857610100808354040283529160200191610583565b820191906000526020600020905b81548152906001019060200180831161056657829003601f168201915b5050505050908060040154905085565b600080600090505b6000548110156106d357836040516020016105b69190611884565b60405160208183030381529060405280519060200120600182815481106105e0576105df61189f565b5b906000526020600020906005020160010160009054906101000a900473ffffffffffffffffffffffffffffffffffffffff166040516020016106229190611884565b60405160208183030381529060405280519060200120036106c0578260405160200161064e9190611547565b60405160208183030381529060405280519060200120600182815481106106785761067761189f565b5b90600052602060002090600502016004015460405160200161069a91906118ef565b60405160208183030381529060405280519060200120036106bf5760019150506106d9565b5b80806106cb906114c3565b91505061059b565b50600090505b92915050565b60606001805480602002602001604051908101604052809291908181526020016000905b828210156108c357838290600052602060002090600502016040518060a0016040529081600082015481526020016001820160009054906101000a900473ffffffffffffffffffffffffffffffffffffffff1673ffffffffffffffffffffffffffffffffffffffff1673ffffffffffffffffffffffffffffffffffffffff1681526020016002820180546107969061158d565b80601f01602080910402602001604051908101604052809291908181526020018280546107c29061158d565b801561080f5780601f106107e45761010080835404028352916020019161080f565b820191906000526020600020905b8154815290600101906020018083116107f257829003601f168201915b505050505081526020016003820180546108289061158d565b80601f01602080910402602001604051908101604052809291908181526020018280546108549061158d565b80156108a15780601f10610876576101008083540402835291602001916108a1565b820191906000526020600020905b81548152906001019060200180831161088457829003601f168201915b5050505050815260200160048201548152505081526020019060010190610703565b50505050905090565b6108d4610c7c565b6000600260008473ffffffffffffffffffffffffffffffffffffffff1673ffffffffffffffffffffffffffffffffffffffff1681526020019081526020016000206040518060a0016040529081600082015481526020016001820160009054906101000a900473ffffffffffffffffffffffffffffffffffffffff1673ffffffffffffffffffffffffffffffffffffffff1673ffffffffffffffffffffffffffffffffffffffff1681526020016002820180546109909061158d565b80601f01602080910402602001604051908101604052809291908181526020018280546109bc9061158d565b8015610a095780601f106109de57610100808354040283529160200191610a09565b820191906000526020600020905b8154815290600101906020018083116109ec57829003601f168201915b50505050508152602001600382018054610a229061158d565b80601f0160208091040260200160405190810160405280929190818152602001828054610a4e9061158d565b8015610a9b5780601f10610a7057610100808354040283529160200191610a9b565b820191906000526020600020905b815481529060010190602001808311610a7e57829003601f168201915b5050505050815260200160048201548152505090506000816000015103610af7576040517f08c379a0000000000000000000000000000000000000000000000000000000008152600401610aee90611956565b60405180910390fd5b80915050919050565b60018181548110610b1057600080fd5b90600052602060002090600502016000915090508060000154908060010160009054906101000a900473ffffffffffffffffffffffffffffffffffffffff1690806002018054610b5f9061158d565b80601f0160208091040260200160405190810160405280929190818152602001828054610b8b9061158d565b8015610bd85780601f10610bad57610100808354040283529160200191610bd8565b820191906000526020600020905b815481529060010190602001808311610bbb57829003601f168201915b505050505090806003018054610bed9061158d565b80601f0160208091040260200160405190810160405280929190818152602001828054610c199061158d565b8015610c665780601f10610c3b57610100808354040283529160200191610c66565b820191906000526020600020905b815481529060010190602001808311610c4957829003601f168201915b5050505050908060040154905085565b60005481565b6040518060a0016040528060008152602001600073ffffffffffffffffffffffffffffffffffffffff1681526020016060815260200160608152602001600080191681525090565b6000604051905090565b600080fd5b600080fd5b600073ffffffffffffffffffffffffffffffffffffffff82169050919050565b6000610d0382610cd8565b9050919050565b610d1381610cf8565b8114610d1e57600080fd5b50565b600081359050610d3081610d0a565b92915050565b600080fd5b600080fd5b6000601f19601f8301169050919050565b7f4e487b7100000000000000000000000000000000000000000000000000000000600052604160045260246000fd5b610d8982610d40565b810181811067ffffffffffffffff82111715610da857610da7610d51565b5b80604052505050565b6000610dbb610cc4565b9050610dc78282610d80565b919050565b600067ffffffffffffffff821115610de757610de6610d51565b5b610df082610d40565b9050602081019050919050565b82818337600083830152505050565b6000610e1f610e1a84610dcc565b610db1565b905082815260208101848484011115610e3b57610e3a610d3b565b5b610e46848285610dfd565b509392505050565b600082601f830112610e6357610e62610d36565b5b8135610e73848260208601610e0c565b91505092915050565b60008060008060808587031215610e9657610e95610cce565b5b6000610ea487828801610d21565b945050602085013567ffffffffffffffff811115610ec557610ec4610cd3565b5b610ed187828801610e4e565b935050604085013567ffffffffffffffff811115610ef257610ef1610cd3565b5b610efe87828801610e4e565b925050606085013567ffffffffffffffff811115610f1f57610f1e610cd3565b5b610f2b87828801610e4e565b91505092959194509250565b600060208284031215610f4d57610f4c610cce565b5b6000610f5b84828501610d21565b91505092915050565b6000819050919050565b610f7781610f64565b82525050565b610f8681610cf8565b82525050565b600081519050919050565b600082825260208201905092915050565b60005b83811015610fc6578082015181840152602081019050610fab565b60008484015250505050565b6000610fdd82610f8c565b610fe78185610f97565b9350610ff7818560208601610fa8565b61100081610d40565b840191505092915050565b6000819050919050565b61101e8161100b565b82525050565b600060a0820190506110396000830188610f6e565b6110466020830187610f7d565b81810360408301526110588186610fd2565b9050818103606083015261106c8185610fd2565b905061107b6080830184611015565b9695505050505050565b6000806040838503121561109c5761109b610cce565b5b60006110aa85828601610d21565b925050602083013567ffffffffffffffff8111156110cb576110ca610cd3565b5b6110d785828601610e4e565b9150509250929050565b60008115159050919050565b6110f6816110e1565b82525050565b600060208201905061111160008301846110ed565b92915050565b600081519050919050565b600082825260208201905092915050565b6000819050602082019050919050565b61114c81610f64565b82525050565b61115b81610cf8565b82525050565b600082825260208201905092915050565b600061117d82610f8c565b6111878185611161565b9350611197818560208601610fa8565b6111a081610d40565b840191505092915050565b6111b48161100b565b82525050565b600060a0830160008301516111d26000860182611143565b5060208301516111e56020860182611152565b50604083015184820360408601526111fd8282611172565b915050606083015184820360608601526112178282611172565b915050608083015161122c60808601826111ab565b508091505092915050565b600061124383836111ba565b905092915050565b6000602082019050919050565b600061126382611117565b61126d8185611122565b93508360208202850161127f85611133565b8060005b858110156112bb578484038952815161129c8582611237565b94506112a78361124b565b925060208a01995050600181019050611283565b50829750879550505050505092915050565b600060208201905081810360008301526112e78184611258565b905092915050565b600060a0830160008301516113076000860182611143565b50602083015161131a6020860182611152565b50604083015184820360408601526113328282611172565b9150506060830151848203606086015261134c8282611172565b915050608083015161136160808601826111ab565b508091505092915050565b6000602082019050818103600083015261138681846112ef565b905092915050565b61139781610f64565b81146113a257600080fd5b50565b6000813590506113b48161138e565b92915050565b6000602082840312156113d0576113cf610cce565b5b60006113de848285016113a5565b91505092915050565b60006020820190506113fc6000830184610f6e565b92915050565b7f496e7374697475746520776974682074686973206164647265737320616c726560008201527f6164792065786973747300000000000000000000000000000000000000000000602082015250565b600061145e602a83610f97565b915061146982611402565b604082019050919050565b6000602082019050818103600083015261148d81611451565b9050919050565b7f4e487b7100000000000000000000000000000000000000000000000000000000600052601160045260246000fd5b60006114ce82610f64565b91507fffffffffffffffffffffffffffffffffffffffffffffffffffffffffffffffff8203611500576114ff611494565b5b600182019050919050565b600081905092915050565b600061152182610f8c565b61152b818561150b565b935061153b818560208601610fa8565b80840191505092915050565b60006115538284611516565b915081905092915050565b7f4e487b7100000000000000000000000000000000000000000000000000000000600052602260045260246000fd5b600060028204905060018216806115a557607f821691505b6020821081036115b8576115b761155e565b5b50919050565b60008190508160005260206000209050919050565b60006020601f8301049050919050565b600082821b905092915050565b6000600883026116207fffffffffffffffffffffffffffffffffffffffffffffffffffffffffffffffff826115e3565b61162a86836115e3565b95508019841693508086168417925050509392505050565b6000819050919050565b600061166761166261165d84610f64565b611642565b610f64565b9050919050565b6000819050919050565b6116818361164c565b61169561168d8261166e565b8484546115f0565b825550505050565b600090565b6116aa61169d565b6116b5818484611678565b505050565b5b818110156116d9576116ce6000826116a2565b6001810190506116bb565b5050565b601f82111561171e576116ef816115be565b6116f8846115d3565b81016020851015611707578190505b61171b611713856115d3565b8301826116ba565b50505b505050565b600082821c905092915050565b600061174160001984600802611723565b1980831691505092915050565b600061175a8383611730565b9150826002028217905092915050565b61177382610f8c565b67ffffffffffffffff81111561178c5761178b610d51565b5b611796825461158d565b6117a18282856116dd565b600060209050601f8311600181146117d457600084156117c2578287015190505b6117cc858261174e565b865550611834565b601f1984166117e2866115be565b60005b8281101561180a578489015182556001820191506020850194506020810190506117e5565b868310156118275784890151611823601f891682611730565b8355505b6001600288020188555050505b505050505050565b60008160601b9050919050565b60006118548261183c565b9050919050565b600061186682611849565b9050919050565b61187e61187982610cf8565b61185b565b82525050565b6000611890828461186d565b60148201915081905092915050565b7f4e487b7100000000000000000000000000000000000000000000000000000000600052603260045260246000fd5b6000819050919050565b6118e96118e48261100b565b6118ce565b82525050565b60006118fb82846118d8565b60208201915081905092915050565b7f496e73746974757465206e6f7420666f756e6400000000000000000000000000600082015250565b6000611940601383610f97565b915061194b8261190a565b602082019050919050565b6000602082019050818103600083015261196f81611933565b905091905056fea264697066735822122098010ec08b49c47181d663893c10f420de6816441d4fdbd46d99b5c039c82f7364736f6c63430008130033",
  "linkReferences": {},
  "deployedLinkReferences": {}
}